:0C0000000C94C8000C9400000C9400004C
:10000C000C9400000C9400000C9400000C94000064
:10001C000C9400000C9400000C9400000C94000054
:10002C000C9400000C9400000C9400000C94000044
:10003C000C9400000C9400000C9400000C94000034
:10004C000C9400000C9400001027E80364000A00D4
:10005C000100001000011000010001000000000070
:10006C00000000000A000A00202020202020202070
:10007C002020202020202020202020202020202074
:10008C00002055736520202020202000204B65790E
:10009C00506164202020002054656D702843292075
:1000AC002000203E353043202020202000202564D5
:1000BC0043202020202020002054656D70284629E4
:1000CC00202000203E3132324620202020002025E6
:1000DC006446202020202020002054656D70284B81
:1000EC0029202000203E3332334B202020200020BA
:1000FC0025644B20202020202000204C6967687448
:10010C002020202000203E333375572F636D322082
:10011C000020256475572F636D32200020446973CD
:10012C00742E2020202000203C3635636D202020AA
:10013C00202000202564636D20202020202000201A
:10014C003C313635696E63682000202564696E6326
:10015C0068202020200001002D4E414E00494E46C3
:10016C00000080C01900600274001900790274004C
:10017C00020092028B0001009402620102009802BC
:10018C006E010000F894EE27ECBBF1E0FBBFEBBF77
:10019C00E5BF8DE0A2E0BB27ED938A95E9F780E0FF
:1001AC0098E0A0E6ED930197E9F7E0E7F1E085919F
:1001BC009591009761F0A591B59105901590BF01AF
:1001CC00F00105900D920197E1F7FB01F0CFEFE5FF
:1001DC00EDBFE8E0EEBFC0E6D2E00C944401AA9378
:1001EC00E881E06CE7B98BE18A95F1F7369A349B9C
:1001FC00FECF349AE4B1F5B1219608951A930A937F
:10020C0004E110E093980E947306809902C001E00B
:10021C0010E0819902C002E010E0829902C003E074
:10022C0010E0939A94980E947306809902C004E09F
:10023C0010E0819902C005E010E0829902C006E04E
:10024C0010E0949A95980E947306809902C007E07A
:10025C0010E0819902C008E010E0829902C009E028
:10026C0010E0959A96980E947306819902C000E05E
:10027C0010E0969AF8010991199108956D978EE006
:10028C00A0E0B0E0E6E6F0E00E949F0744E150E019
:10029C00E0E0EABBEBBBE7BBE8BBE7EFE4BBE0E0CD
:1002AC00E5BBE1BBE2BBE3BFE2BFECBFEFBDEEBD24
:1002BC00EDBDECBDE7BDE6BDEBBDEABDE9BDE8BDFE
:1002CC00E2BDE5BDE4BDE3BDE9BFE5BFE4BFEAB90E
:1002DC00E0E8E8B9E0ECE7B9E6E8E6B9E0E0E0BF71
:1002EC00EDB9E6BFA0E10E942C06E0E0E5BBE7EF2C
:1002FC00E4BBE0ECE7B9E3E8E6B9E8EFE1BBE2BB6D
:10030C00EFEFE7BBE8EFE8BBD39AD49AD59AD69A2D
:10031C00D79A8F9AA39AA0E062DF1E2FA1E05FDF2D
:10032C000E2FA2E05CDF3E2F69DFAF01E4E1F0E0CD
:10033C00E417F50709F460C0E7E0F0E0E417F5070F
:10034C0031F00E94770619F00E947C0621F4EC85AE
:10035C00FD85EA87FB874C875D87E0E00E9481067C
:10036C00A0E6B2E00E941B06E0E00E948506A9E729
:10037C00B2E00E941B06E0E0E8BBDB98DC98DD985D
:10038C00DE98E1E0F0E0E417F507A9F1E2E0F0E037
:10039C00E417F50711F4DD9A2FC0E3E0F0E0E41761
:1003AC00F50711F4DD9A27C0E4E0F0E0E417F50757
:1003BC0011F4DC9A21C0E5E0F0E0E417F50711F444
:1003CC00DC9A19C0E6E0F0E0E417F50719F4DC9AC2
:1003DC00DD9A12C0E7E0F0E0E417F50719F4DC9AB7
:1003EC00DD9A09C00E94770611F4DB9A05C00E94C1
:1003FC007C0611F4DB9ADE9AAC85BD851A9721F048
:10040C00AC85BD851097A9F40E948906EDE8F0E053
:10041C000E948E060E9481060E9496060E94890602
:10042C00E8E9F0E00E948E060E9485060E9496067E
:10043C006AC1AC85BD85119771F50E949A06F29739
:10044C008CF00E948906E3EAF0E00E948E060E947E
:10045C0081060E9496060E948906EEEAF0E00E9450
:10046C00A10612C00E948906E3EAF0E00E948E0603
:10047C000E9481060E9496060E948906E9EBF0E034
:10048C000E94A8060E94AB06EC810E9485060E9481
:10049C009606C29A38C1AC85BD851297C1F50E94EB
:1004AC009A06F2978CF00E948906E4ECF0E00E9428
:1004BC008E060E9481060E9496060E948906EFEC29
:1004CC00F0E00E94A1061CC00E948906E4ECF0E05A
:1004DC000E948E060E9481060E9496060E94890642
:1004EC00EAEDF0E00E94A806A9E0B0E00E944807FF
:1004FC00DF01E5E0F0E00E946007B0960E94AB06D9
:10050C00EC810E9485060E949606C29AFCC0AC85BE
:10051C00BD85139781F50E949A06F2978CF00E9484
:10052C008906E5EEF0E00E948E060E9481060E948C
:10053C0096060E948906E0EFF0E00E94A10614C026
:10054C000E948906E5EEF0E00E948E060E9481066C
:10055C000E9496060E948906EBEFF0E00E94A80626
:10056C00EF5EFE4F0E94AB06EC810E9485060E9456
:10057C009606C29AC8C0AC85BD85149781F50E94B9
:10058C00B406B1978CF00E948906E6E0F1E00E9477
:10059C008E060E9481060E9496060E948906E1E161
:1005AC00F1E00E94A10614C00E948906E6E0F1E089
:1005BC000E948E060E9481060E9496060E94890661
:1005CC00EDE1F1E0FA93EA930E94B4060E94AB06C7
:1005DC00EC810E9485060E949606C19A94C0AC8557
:1005EC00BD851597A1F50E94BB06AE1BBF0BA134B0
:1005FC00E0E0BE077CF40E9489060E94C4060E94BB
:10060C0081060E9496060E948906E3E3F1E00E94AF
:10061C00A10616C00E9489060E94C4060E9481068B
:10062C000E9496060E948906EFE3F1E0FA93EA93A2
:10063C000E94BB060E948A07EA1BFB0B0E94AB06BA
:10064C00EC810E9485060E949606C09A5CC0AC851F
:10065C00BD851697D9F50E94BB06AE1BBF0BA13406
:10066C00E0E0BE077CF40E9489060E94C4060E944A
:10067C0081060E9496060E948906EBE4F1E00E9436
:10068C00A1061DC00E9489060E94C4060E94810614
:10069C000E9496060E948906E6E5F1E0FA93EA9339
:1006AC000E94BB06AE1BBF0BEEEFF0E00E944807AA
:1006BC00DF01E4E6F0E00E9460070E94AB06EC81EB
:1006CC000E9485060E949606C09A1DC0AC85BD8509
:1006DC00179729F4E1E0F0E0EE83FF8310C00E944D
:1006EC00770629F4E1E0F0E0E887F98708C00E947A
:1006FC007C0649F4E0E0E887E987EE83EF83EA853E
:10070C00FB85EC87FD87A885B985119791F5EC8160
:10071C00EA93AB810E94ED05A2E9B2E00E941B06B0
:10072C00E881F981AC81BD81EA0FFB1FEC83FD836D
:10073C00AC81BD8119973CF0E8E0F0E0EC83FD83DF
:10074C00EFEFFFEF08C0AD81AA233AF4E0E0EC83B1
:10075C00ED83E1E0F0E0E883F983EA81FB813097F7
:10076C0029F4E1E0F0E0EA83FB8303C0E0E0EA83F4
:10077C00EB83AE81BF811197F1F40E94C70611F48F
:10078C00C39801C0C39A0E94C70611F4C49801C053
:10079C00C49A0E94C70611F4C59801C0C59A0E945C
:1007AC00C70611F4C69801C0C69A0E94C70611F478
:1007BC00C79801C0C79A0E94BB06AE1BBF0BA634DC
:1007CC00E0E0BE0734F4979B02C0979801C0979A5B
:1007DC0001C097980E949A06BE9734F0DF9B02C026
:1007EC00DF9801C0DF9A01C0DF980E94B4067F97A2
:1007FC0034F0AB9B02C0AB9801C0AB9A01C0AB9874
:10080C008ACDFFCFBA93AA931A930A93AA81BB817C
:10081C0012960E947D07309759F1AA81BB811496DC
:10082C000E947D078F01309761F00230E0E01E07D7
:10083C0098F0F80131978F01AA81BB811496ED9342
:10084C00FC93AA81BB811296ED91FD913196FE939A
:10085C00EE933197AC81A083AA81BB810E947D0766
:10086C00FF232AF0ED91FD913196FE93EE9306C095
:10087C00AA81BB81EFEFFFEFED93FC931981088107
:10088C0025960895BA93AA9326970E94910710E093
:10089C00AC85BD85E0E0F0E0ED93FC93EA89FB8943
:1008AC003196EA8BFB8B3197E4912E2FE03009F4D3
:1008BC0015C1E12FE03039F4253211F411E002C0FA
:1008CC000E94CF060AC1E130A9F4253219F40E9426
:1008DC00CF0602C112E040E000E02D3211F401E03D
:1008EC00FCC02B3211F44BE2F8C0203211F440E280
:1008FC00F4C002C0E23039F450E013E0203311F4BC
:10090C000068EBC003C0E33009F0E7C0203310F0FF
:10091C002A3308F007C0AAE05A9F502DE22FE0536B
:10092C005E0FDBC0E22FE33649F40E94D606E8895D
:10093C00F989A481AA930E94DC06CEC0E33741F466
:10094C000E94D6060E94E2060E945A061E2F0AC07A
:10095C00E03761F40E94D6060E94E2060E94660609
:10096C001E2F086002600F7730E034C0E43611F0BF
:10097C00E93611F4046002C0E53731F4E4E5F0E047
:10098C00EE83FF8315E00CC0E83511F4086003C05A
:10099C00E83709F0A1C0EEE5F0E0EE83FF8314E048
:1009AC0002FF14C00E94D6060E94EC06AB85AA2357
:1009BC003AF4EA85FB850E941707EA87FB874DE22C
:1009CC00403011F01F5F01C00B7F04C00E94D6069F
:1009DC000E94EC0600FD11C0151778F407FF08C043
:1009EC0002FF04C00B7F242F115001C020E301C073
:1009FC0020E20E94CF065150EFCF312F01FF17C0DC
:100A0C003030A1F003FF06C0EE81FF812591EE830B
:100A1C00FF8305C0AE81BF812D91AE83BF830E9441
:100A2C00CF06503009F051503150EACF4BC020E383
:100A3C00EE81FF810E948107E887F987EE81FF81B3
:100A4C003296EE83FF83E885F985AA85BB85AE17C0
:100A5C00BF0750F02F5FA885B985EA85FB85EA1B97
:100A6C00FB0BEA87FB87EFCF2A3328F003FF02C08A
:100A7C00295F01C0295D04FD1AC0213320F4A8852B
:100A8C00B985119709F409C0531710F000FF01C084
:100A9C0013C020E207FF0BC020E3006102FF07C078
:100AAC000B7F4A930E94DC06503009F051500E9493
:100ABC00CF06503009F051503150A885B9851297A6
:100ACC0008F0B5CF00FF08C0503031F05150E0E2D3
:100ADC00EA930E94DC06F8CF10E0E0CEAC85BD8531
:100AEC000E947D070E94980764960895FF92F82E45
:100AFC0026970E9493070E94F406309719F4EFEFA3
:100B0C00FFEF23C0DE0116960E9413078D010E9491
:100B1C00F406EE83FF83E0E0E887E987DE011A96AE
:100B2C000E9413070E947D07FA93EA931A930A9383
:100B3C00E8E0F4E0FA93EA93DE011A96A3DE9F0153
:100B4C00AE81BF81E0E0EC93F9010E949A072A96EE
:100B5C00FF900895E0919402F091950260919602B5
:100B6C0070919702ADE6BEE486EC91E40E942807F2
:100B7C00EE59F8486F4F7F4FE0939402F093950233
:100B8C006093960270939702FB01FF770895AA93E6
:100B9C00E5B3EF70AE2FE881E07FEA2BE5BB8DE08B
:100BAC008A95F1F7AA9A8DE08A95F1F7AA988DE0CB
:100BBC008A95F1F777C0AA93A881E9DFE881E295DD
:100BCC00E883A881E4DF85E88A95F1F76BC0AA93E6
:100BDC00E881F0E0E856FD4FE081A981AE0FEBDF34
:100BEC005980488022960895A2E00E94FB06ACE052
:100BFC00E2DFA1E00E94FB06E0E04E2E5E2E08959F
:100C0C00AA93A881AA3011F0571448F0E0E0EA93B7
:100C1C004394A42DDCDFA881AA3009F443C053947B
:100C2C00A89AA881C8DFA8983DC0BA93AA931A9332
:100C3C00A981BA81ED91A983BA831E2FE03019F0F6
:100C4C00A12FDEDFF5CF188123960895AA93E4B384
:100C5C00E06FE4BBA29AA09AA19AAA98A898A99826
:100C6C007880E881E058E0939A02E881E054E093C0
:100C7C009B02A4E1B0E00E9409070E9401070E94B8
:100C8C0001070E940107A0E282DF88EC90E0019747
:100C9C00F1F7A8E290DFA4E08EDFA5E88CDFA6E0F8
:100CAC008ADFA2DF21960895BA93AA93A991B991EC
:100CBC00EE27FF276D91662311F03196FBCF089537
:100CCC00BA93AA93AA27BB27E991F9910590002022
:100CDC0011F01196FBCFFD010895A2E0B0E00C9449
:100CEC000907E8E0F0E0E417F5070895E9E0F0E023
:100CFC00E417F5070895EA93A0E00C94ED05EA9348
:100D0C00A1E00C94ED05FE013E96FA93EA9308954A
:100D1C00FA93EA9380E00E947C052496EC81089576
:100D2C00DE011E960C941B06A12FB0E0E4E0F0E06F
:100D3C000E9460070895FA93EA9380E00E947C0574
:100D4C0024960895FA93EA93EFCF0E941B070E9412
:100D5C00850784E00E947C0528960895A02FB0E0BA
:100D6C00E6E0F0E00E9460070895A32FB0E0E2E017
:100D7C00F0E00E946007A1EAB0E00895E8E2F1E03B
:100D8C00C7CF0E94B005A1E0B0E00E946507E0303B
:100D9C0008952A93AD85BE85EF85F8890995089548
:100DAC00E889F9893497E88BF98B0895AD85BE8570
:100DBC00EF85F88909950895A889B98914960E9438
:100DCC007D07EE83FF83AE81BF810895A889B98921
:100DDC0014960E947D07EA87FB870895DE011C9616
:100DEC000E9413070E947D0708950E94E105A3E06D
:100DFC00B0E00C940907A0E30E94CD0588EC90E0CC
:100E0C000197F1F70895109639F0A89580ED97E0C9
:100E1C000197F1F71197C9F708950024AF0DB01D94
:100E2C000895F195E195F04008956F2F660F660BCC
:100E3C00762F0895FA9FF02DEB9FF00DEA9FE02D91
:100E4C00F10D08957A9F702D6B9F700DF89F700DAA
:100E5C00E99F700D6A9F602D710DFB9F600D711DD8
:100E6C00E89F600D711D8827FA9FF02D610D781F8A
:100E7C00EB9FF00D611D781FEA9FE02DF10D681FAF
:100E8C00781F089526D0D6DF0EF4CBDF089500240A
:100E9C00112490E1AA0FBB1F001C111C0E1A1F0A73
:100EAC0018F40E0E1F1E01C0A1609A9599F7FD0152
:100EBC00D00108950ED0EBDF0EF4B3DF0895E89463
:100ECC00F7FF02C0AEDF6894EA23FB230EF4A9DF20
:100EDC000895E894F7FF02C0A4DF6894B7FF06C03A
:100EEC00A095B095119600F8039400FA0895ED9131
:100EFC00FC91119708950590F491E02D08957A9343
:100F0C006A93FA93EA9308951B2EBF2FF12D1A2E94
:100F1C00AE2FE12D08955A934A933A932A931A933C
:100F2C000A9308955D814C813B812A811981088146
:100F3C000895AC0FBD1F05900D928A95E1F70895A9
:00000001FF
